{
    "abi": [
        {
            "anonymous": false,
            "inputs": [
                {
                    "indexed": true,
                    "internalType": "address",
                    "name": "owner",
                    "type": "address"
                },
                {
                    "indexed": true,
                    "internalType": "address",
                    "name": "approved",
                    "type": "address"
                },
                {
                    "indexed": true,
                    "internalType": "uint256",
                    "name": "tokenId",
                    "type": "uint256"
                }
            ],
            "name": "Approval",
            "type": "event"
        },
        {
            "anonymous": false,
            "inputs": [
                {
                    "indexed": true,
                    "internalType": "address",
                    "name": "owner",
                    "type": "address"
                },
                {
                    "indexed": true,
                    "internalType": "address",
                    "name": "operator",
                    "type": "address"
                },
                {
                    "indexed": false,
                    "internalType": "bool",
                    "name": "approved",
                    "type": "bool"
                }
            ],
            "name": "ApprovalForAll",
            "type": "event"
        },
        {
            "anonymous": false,
            "inputs": [
                {
                    "indexed": true,
                    "internalType": "address",
                    "name": "newRoyaltyRecipient",
                    "type": "address"
                },
                {
                    "indexed": false,
                    "internalType": "uint256",
                    "name": "newRoyaltyBps",
                    "type": "uint256"
                }
            ],
            "name": "DefaultRoyalty",
            "type": "event"
        },
        {
            "anonymous": false,
            "inputs": [
                {
                    "indexed": false,
                    "internalType": "uint8",
                    "name": "version",
                    "type": "uint8"
                }
            ],
            "name": "Initialized",
            "type": "event"
        },
        {
            "anonymous": false,
            "inputs": [
                {
                    "indexed": true,
                    "internalType": "address",
                    "name": "prevOwner",
                    "type": "address"
                },
                {
                    "indexed": true,
                    "internalType": "address",
                    "name": "newOwner",
                    "type": "address"
                }
            ],
            "name": "OwnerUpdated",
            "type": "event"
        },
        {
            "anonymous": false,
            "inputs": [
                {
                    "indexed": true,
                    "internalType": "address",
                    "name": "platformFeeRecipient",
                    "type": "address"
                },
                {
                    "indexed": false,
                    "internalType": "uint256",
                    "name": "platformFeeBps",
                    "type": "uint256"
                }
            ],
            "name": "PlatformFeeInfoUpdated",
            "type": "event"
        },
        {
            "anonymous": false,
            "inputs": [
                {
                    "indexed": true,
                    "internalType": "address",
                    "name": "recipient",
                    "type": "address"
                }
            ],
            "name": "PrimarySaleRecipientUpdated",
            "type": "event"
        },
        {
            "anonymous": false,
            "inputs": [
                {
                    "indexed": true,
                    "internalType": "bytes32",
                    "name": "role",
                    "type": "bytes32"
                },
                {
                    "indexed": true,
                    "internalType": "bytes32",
                    "name": "previousAdminRole",
                    "type": "bytes32"
                },
                {
                    "indexed": true,
                    "internalType": "bytes32",
                    "name": "newAdminRole",
                    "type": "bytes32"
                }
            ],
            "name": "RoleAdminChanged",
            "type": "event"
        },
        {
            "anonymous": false,
            "inputs": [
                {
                    "indexed": true,
                    "internalType": "bytes32",
                    "name": "role",
                    "type": "bytes32"
                },
                {
                    "indexed": true,
                    "internalType": "address",
                    "name": "account",
                    "type": "address"
                },
                {
                    "indexed": true,
                    "internalType": "address",
                    "name": "sender",
                    "type": "address"
                }
            ],
            "name": "RoleGranted",
            "type": "event"
        },
        {
            "anonymous": false,
            "inputs": [
                {
                    "indexed": true,
                    "internalType": "bytes32",
                    "name": "role",
                    "type": "bytes32"
                },
                {
                    "indexed": true,
                    "internalType": "address",
                    "name": "account",
                    "type": "address"
                },
                {
                    "indexed": true,
                    "internalType": "address",
                    "name": "sender",
                    "type": "address"
                }
            ],
            "name": "RoleRevoked",
            "type": "event"
        },
        {
            "anonymous": false,
            "inputs": [
                {
                    "indexed": true,
                    "internalType": "uint256",
                    "name": "tokenId",
                    "type": "uint256"
                },
                {
                    "indexed": true,
                    "internalType": "address",
                    "name": "royaltyRecipient",
                    "type": "address"
                },
                {
                    "indexed": false,
                    "internalType": "uint256",
                    "name": "royaltyBps",
                    "type": "uint256"
                }
            ],
            "name": "RoyaltyForToken",
            "type": "event"
        },
        {
            "anonymous": false,
            "inputs": [
                {
                    "indexed": true,
                    "internalType": "address",
                    "name": "mintedTo",
                    "type": "address"
                },
                {
                    "indexed": true,
                    "internalType": "uint256",
                    "name": "tokenIdMinted",
                    "type": "uint256"
                },
                {
                    "indexed": false,
                    "internalType": "string",
                    "name": "uri",
                    "type": "string"
                }
            ],
            "name": "TokensMinted",
            "type": "event"
        },
        {
            "anonymous": false,
            "inputs": [
                {
                    "indexed": true,
                    "internalType": "address",
                    "name": "signer",
                    "type": "address"
                },
                {
                    "indexed": true,
                    "internalType": "address",
                    "name": "mintedTo",
                    "type": "address"
                },
                {
                    "indexed": true,
                    "internalType": "uint256",
                    "name": "tokenIdMinted",
                    "type": "uint256"
                },
                {
                    "components": [
                        {
                            "internalType": "address",
                            "name": "to",
                            "type": "address"
                        },
                        {
                            "internalType": "address",
                            "name": "royaltyRecipient",
                            "type": "address"
                        },
                        {
                            "internalType": "uint256",
                            "name": "royaltyBps",
                            "type": "uint256"
                        },
                        {
                            "internalType": "address",
                            "name": "primarySaleRecipient",
                            "type": "address"
                        },
                        {
                            "internalType": "string",
                            "name": "uri",
                            "type": "string"
                        },
                        {
                            "internalType": "uint256",
                            "name": "price",
                            "type": "uint256"
                        },
                        {
                            "internalType": "address",
                            "name": "currency",
                            "type": "address"
                        },
                        {
                            "internalType": "uint128",
                            "name": "validityStartTimestamp",
                            "type": "uint128"
                        },
                        {
                            "internalType": "uint128",
                            "name": "validityEndTimestamp",
                            "type": "uint128"
                        },
                        {
                            "internalType": "bytes32",
                            "name": "uid",
                            "type": "bytes32"
                        }
                    ],
                    "indexed": false,
                    "internalType": "struct ITokenERC721.MintRequest",
                    "name": "mintRequest",
                    "type": "tuple"
                }
            ],
            "name": "TokensMintedWithSignature",
            "type": "event"
        },
        {
            "anonymous": false,
            "inputs": [
                {
                    "indexed": true,
                    "internalType": "address",
                    "name": "from",
                    "type": "address"
                },
                {
                    "indexed": true,
                    "internalType": "address",
                    "name": "to",
                    "type": "address"
                },
                {
                    "indexed": true,
                    "internalType": "uint256",
                    "name": "tokenId",
                    "type": "uint256"
                }
            ],
            "name": "Transfer",
            "type": "event"
        },
        {
            "inputs": [],
            "name": "DEFAULT_ADMIN_ROLE",
            "outputs": [
                {
                    "internalType": "bytes32",
                    "name": "",
                    "type": "bytes32"
                }
            ],
            "stateMutability": "view",
            "type": "function"
        },
        {
            "inputs": [
                {
                    "internalType": "address",
                    "name": "to",
                    "type": "address"
                },
                {
                    "internalType": "uint256",
                    "name": "tokenId",
                    "type": "uint256"
                }
            ],
            "name": "approve",
            "outputs": [],
            "stateMutability": "nonpayable",
            "type": "function"
        },
        {
            "inputs": [
                {
                    "internalType": "address",
                    "name": "owner",
                    "type": "address"
                }
            ],
            "name": "balanceOf",
            "outputs": [
                {
                    "internalType": "uint256",
                    "name": "",
                    "type": "uint256"
                }
            ],
            "stateMutability": "view",
            "type": "function"
        },
        {
            "inputs": [
                {
                    "internalType": "uint256",
                    "name": "tokenId",
                    "type": "uint256"
                }
            ],
            "name": "burn",
            "outputs": [],
            "stateMutability": "nonpayable",
            "type": "function"
        },
        {
            "inputs": [],
            "name": "contractType",
            "outputs": [
                {
                    "internalType": "bytes32",
                    "name": "",
                    "type": "bytes32"
                }
            ],
            "stateMutability": "pure",
            "type": "function"
        },
        {
            "inputs": [],
            "name": "contractURI",
            "outputs": [
                {
                    "internalType": "string",
                    "name": "",
                    "type": "string"
                }
            ],
            "stateMutability": "view",
            "type": "function"
        },
        {
            "inputs": [],
            "name": "contractVersion",
            "outputs": [
                {
                    "internalType": "uint8",
                    "name": "",
                    "type": "uint8"
                }
            ],
            "stateMutability": "pure",
            "type": "function"
        },
        {
            "inputs": [
                {
                    "internalType": "uint256",
                    "name": "tokenId",
                    "type": "uint256"
                }
            ],
            "name": "getApproved",
            "outputs": [
                {
                    "internalType": "address",
                    "name": "",
                    "type": "address"
                }
            ],
            "stateMutability": "view",
            "type": "function"
        },
        {
            "inputs": [],
            "name": "getDefaultRoyaltyInfo",
            "outputs": [
                {
                    "internalType": "address",
                    "name": "",
                    "type": "address"
                },
                {
                    "internalType": "uint16",
                    "name": "",
                    "type": "uint16"
                }
            ],
            "stateMutability": "view",
            "type": "function"
        },
        {
            "inputs": [],
            "name": "getPlatformFeeInfo",
            "outputs": [
                {
                    "internalType": "address",
                    "name": "",
                    "type": "address"
                },
                {
                    "internalType": "uint16",
                    "name": "",
                    "type": "uint16"
                }
            ],
            "stateMutability": "view",
            "type": "function"
        },
        {
            "inputs": [
                {
                    "internalType": "bytes32",
                    "name": "role",
                    "type": "bytes32"
                }
            ],
            "name": "getRoleAdmin",
            "outputs": [
                {
                    "internalType": "bytes32",
                    "name": "",
                    "type": "bytes32"
                }
            ],
            "stateMutability": "view",
            "type": "function"
        },
        {
            "inputs": [
                {
                    "internalType": "bytes32",
                    "name": "role",
                    "type": "bytes32"
                },
                {
                    "internalType": "uint256",
                    "name": "index",
                    "type": "uint256"
                }
            ],
            "name": "getRoleMember",
            "outputs": [
                {
                    "internalType": "address",
                    "name": "",
                    "type": "address"
                }
            ],
            "stateMutability": "view",
            "type": "function"
        },
        {
            "inputs": [
                {
                    "internalType": "bytes32",
                    "name": "role",
                    "type": "bytes32"
                }
            ],
            "name": "getRoleMemberCount",
            "outputs": [
                {
                    "internalType": "uint256",
                    "name": "",
                    "type": "uint256"
                }
            ],
            "stateMutability": "view",
            "type": "function"
        },
        {
            "inputs": [
                {
                    "internalType": "uint256",
                    "name": "_tokenId",
                    "type": "uint256"
                }
            ],
            "name": "getRoyaltyInfoForToken",
            "outputs": [
                {
                    "internalType": "address",
                    "name": "",
                    "type": "address"
                },
                {
                    "internalType": "uint16",
                    "name": "",
                    "type": "uint16"
                }
            ],
            "stateMutability": "view",
            "type": "function"
        },
        {
            "inputs": [
                {
                    "internalType": "bytes32",
                    "name": "role",
                    "type": "bytes32"
                },
                {
                    "internalType": "address",
                    "name": "account",
                    "type": "address"
                }
            ],
            "name": "grantRole",
            "outputs": [],
            "stateMutability": "nonpayable",
            "type": "function"
        },
        {
            "inputs": [
                {
                    "internalType": "bytes32",
                    "name": "role",
                    "type": "bytes32"
                },
                {
                    "internalType": "address",
                    "name": "account",
                    "type": "address"
                }
            ],
            "name": "hasRole",
            "outputs": [
                {
                    "internalType": "bool",
                    "name": "",
                    "type": "bool"
                }
            ],
            "stateMutability": "view",
            "type": "function"
        },
        {
            "inputs": [
                {
                    "internalType": "address",
                    "name": "_defaultAdmin",
                    "type": "address"
                },
                {
                    "internalType": "string",
                    "name": "_name",
                    "type": "string"
                },
                {
                    "internalType": "string",
                    "name": "_symbol",
                    "type": "string"
                },
                {
                    "internalType": "string",
                    "name": "_contractURI",
                    "type": "string"
                },
                {
                    "internalType": "address[]",
                    "name": "_trustedForwarders",
                    "type": "address[]"
                },
                {
                    "internalType": "address",
                    "name": "_saleRecipient",
                    "type": "address"
                },
                {
                    "internalType": "address",
                    "name": "_royaltyRecipient",
                    "type": "address"
                },
                {
                    "internalType": "uint128",
                    "name": "_royaltyBps",
                    "type": "uint128"
                },
                {
                    "internalType": "uint128",
                    "name": "_platformFeeBps",
                    "type": "uint128"
                },
                {
                    "internalType": "address",
                    "name": "_platformFeeRecipient",
                    "type": "address"
                }
            ],
            "name": "initialize",
            "outputs": [],
            "stateMutability": "nonpayable",
            "type": "function"
        },
        {
            "inputs": [
                {
                    "internalType": "address",
                    "name": "owner",
                    "type": "address"
                },
                {
                    "internalType": "address",
                    "name": "operator",
                    "type": "address"
                }
            ],
            "name": "isApprovedForAll",
            "outputs": [
                {
                    "internalType": "bool",
                    "name": "",
                    "type": "bool"
                }
            ],
            "stateMutability": "view",
            "type": "function"
        },
        {
            "inputs": [
                {
                    "internalType": "address",
                    "name": "forwarder",
                    "type": "address"
                }
            ],
            "name": "isTrustedForwarder",
            "outputs": [
                {
                    "internalType": "bool",
                    "name": "",
                    "type": "bool"
                }
            ],
            "stateMutability": "view",
            "type": "function"
        },
        {
            "inputs": [
                {
                    "internalType": "address",
                    "name": "_to",
                    "type": "address"
                },
                {
                    "internalType": "string",
                    "name": "_uri",
                    "type": "string"
                }
            ],
            "name": "mintTo",
            "outputs": [
                {
                    "internalType": "uint256",
                    "name": "",
                    "type": "uint256"
                }
            ],
            "stateMutability": "nonpayable",
            "type": "function"
        },
        {
            "inputs": [
                {
                    "components": [
                        {
                            "internalType": "address",
                            "name": "to",
                            "type": "address"
                        },
                        {
                            "internalType": "address",
                            "name": "royaltyRecipient",
                            "type": "address"
                        },
                        {
                            "internalType": "uint256",
                            "name": "royaltyBps",
                            "type": "uint256"
                        },
                        {
                            "internalType": "address",
                            "name": "primarySaleRecipient",
                            "type": "address"
                        },
                        {
                            "internalType": "string",
                            "name": "uri",
                            "type": "string"
                        },
                        {
                            "internalType": "uint256",
                            "name": "price",
                            "type": "uint256"
                        },
                        {
                            "internalType": "address",
                            "name": "currency",
                            "type": "address"
                        },
                        {
                            "internalType": "uint128",
                            "name": "validityStartTimestamp",
                            "type": "uint128"
                        },
                        {
                            "internalType": "uint128",
                            "name": "validityEndTimestamp",
                            "type": "uint128"
                        },
                        {
                            "internalType": "bytes32",
                            "name": "uid",
                            "type": "bytes32"
                        }
                    ],
                    "internalType": "struct ITokenERC721.MintRequest",
                    "name": "_req",
                    "type": "tuple"
                },
                {
                    "internalType": "bytes",
                    "name": "_signature",
                    "type": "bytes"
                }
            ],
            "name": "mintWithSignature",
            "outputs": [
                {
                    "internalType": "uint256",
                    "name": "tokenIdMinted",
                    "type": "uint256"
                }
            ],
            "stateMutability": "payable",
            "type": "function"
        },
        {
            "inputs": [
                {
                    "internalType": "bytes[]",
                    "name": "data",
                    "type": "bytes[]"
                }
            ],
            "name": "multicall",
            "outputs": [
                {
                    "internalType": "bytes[]",
                    "name": "results",
                    "type": "bytes[]"
                }
            ],
            "stateMutability": "nonpayable",
            "type": "function"
        },
        {
            "inputs": [],
            "name": "name",
            "outputs": [
                {
                    "internalType": "string",
                    "name": "",
                    "type": "string"
                }
            ],
            "stateMutability": "view",
            "type": "function"
        },
        {
            "inputs": [],
            "name": "nextTokenIdToMint",
            "outputs": [
                {
                    "internalType": "uint256",
                    "name": "",
                    "type": "uint256"
                }
            ],
            "stateMutability": "view",
            "type": "function"
        },
        {
            "inputs": [],
            "name": "owner",
            "outputs": [
                {
                    "internalType": "address",
                    "name": "",
                    "type": "address"
                }
            ],
            "stateMutability": "view",
            "type": "function"
        },
        {
            "inputs": [
                {
                    "internalType": "uint256",
                    "name": "tokenId",
                    "type": "uint256"
                }
            ],
            "name": "ownerOf",
            "outputs": [
                {
                    "internalType": "address",
                    "name": "",
                    "type": "address"
                }
            ],
            "stateMutability": "view",
            "type": "function"
        },
        {
            "inputs": [],
            "name": "platformFeeBps",
            "outputs": [
                {
                    "internalType": "uint128",
                    "name": "",
                    "type": "uint128"
                }
            ],
            "stateMutability": "view",
            "type": "function"
        },
        {
            "inputs": [],
            "name": "platformFeeRecipient",
            "outputs": [
                {
                    "internalType": "address",
                    "name": "",
                    "type": "address"
                }
            ],
            "stateMutability": "view",
            "type": "function"
        },
        {
            "inputs": [],
            "name": "primarySaleRecipient",
            "outputs": [
                {
                    "internalType": "address",
                    "name": "",
                    "type": "address"
                }
            ],
            "stateMutability": "view",
            "type": "function"
        },
        {
            "inputs": [
                {
                    "internalType": "bytes32",
                    "name": "role",
                    "type": "bytes32"
                },
                {
                    "internalType": "address",
                    "name": "account",
                    "type": "address"
                }
            ],
            "name": "renounceRole",
            "outputs": [],
            "stateMutability": "nonpayable",
            "type": "function"
        },
        {
            "inputs": [
                {
                    "internalType": "bytes32",
                    "name": "role",
                    "type": "bytes32"
                },
                {
                    "internalType": "address",
                    "name": "account",
                    "type": "address"
                }
            ],
            "name": "revokeRole",
            "outputs": [],
            "stateMutability": "nonpayable",
            "type": "function"
        },
        {
            "inputs": [
                {
                    "internalType": "uint256",
                    "name": "tokenId",
                    "type": "uint256"
                },
                {
                    "internalType": "uint256",
                    "name": "salePrice",
                    "type": "uint256"
                }
            ],
            "name": "royaltyInfo",
            "outputs": [
                {
                    "internalType": "address",
                    "name": "receiver",
                    "type": "address"
                },
                {
                    "internalType": "uint256",
                    "name": "royaltyAmount",
                    "type": "uint256"
                }
            ],
            "stateMutability": "view",
            "type": "function"
        },
        {
            "inputs": [
                {
                    "internalType": "address",
                    "name": "from",
                    "type": "address"
                },
                {
                    "internalType": "address",
                    "name": "to",
                    "type": "address"
                },
                {
                    "internalType": "uint256",
                    "name": "tokenId",
                    "type": "uint256"
                }
            ],
            "name": "safeTransferFrom",
            "outputs": [],
            "stateMutability": "nonpayable",
            "type": "function"
        },
        {
            "inputs": [
                {
                    "internalType": "address",
                    "name": "from",
                    "type": "address"
                },
                {
                    "internalType": "address",
                    "name": "to",
                    "type": "address"
                },
                {
                    "internalType": "uint256",
                    "name": "tokenId",
                    "type": "uint256"
                },
                {
                    "internalType": "bytes",
                    "name": "data",
                    "type": "bytes"
                }
            ],
            "name": "safeTransferFrom",
            "outputs": [],
            "stateMutability": "nonpayable",
            "type": "function"
        },
        {
            "inputs": [
                {
                    "internalType": "address",
                    "name": "operator",
                    "type": "address"
                },
                {
                    "internalType": "bool",
                    "name": "approved",
                    "type": "bool"
                }
            ],
            "name": "setApprovalForAll",
            "outputs": [],
            "stateMutability": "nonpayable",
            "type": "function"
        },
        {
            "inputs": [
                {
                    "internalType": "string",
                    "name": "_uri",
                    "type": "string"
                }
            ],
            "name": "setContractURI",
            "outputs": [],
            "stateMutability": "nonpayable",
            "type": "function"
        },
        {
            "inputs": [
                {
                    "internalType": "address",
                    "name": "_royaltyRecipient",
                    "type": "address"
                },
                {
                    "internalType": "uint256",
                    "name": "_royaltyBps",
                    "type": "uint256"
                }
            ],
            "name": "setDefaultRoyaltyInfo",
            "outputs": [],
            "stateMutability": "nonpayable",
            "type": "function"
        },
        {
            "inputs": [
                {
                    "internalType": "address",
                    "name": "_newOwner",
                    "type": "address"
                }
            ],
            "name": "setOwner",
            "outputs": [],
            "stateMutability": "nonpayable",
            "type": "function"
        },
        {
            "inputs": [
                {
                    "internalType": "address",
                    "name": "_platformFeeRecipient",
                    "type": "address"
                },
                {
                    "internalType": "uint256",
                    "name": "_platformFeeBps",
                    "type": "uint256"
                }
            ],
            "name": "setPlatformFeeInfo",
            "outputs": [],
            "stateMutability": "nonpayable",
            "type": "function"
        },
        {
            "inputs": [
                {
                    "internalType": "address",
                    "name": "_saleRecipient",
                    "type": "address"
                }
            ],
            "name": "setPrimarySaleRecipient",
            "outputs": [],
            "stateMutability": "nonpayable",
            "type": "function"
        },
        {
            "inputs": [
                {
                    "internalType": "uint256",
                    "name": "_tokenId",
                    "type": "uint256"
                },
                {
                    "internalType": "address",
                    "name": "_recipient",
                    "type": "address"
                },
                {
                    "internalType": "uint256",
                    "name": "_bps",
                    "type": "uint256"
                }
            ],
            "name": "setRoyaltyInfoForToken",
            "outputs": [],
            "stateMutability": "nonpayable",
            "type": "function"
        },
        {
            "inputs": [
                {
                    "internalType": "bytes4",
                    "name": "interfaceId",
                    "type": "bytes4"
                }
            ],
            "name": "supportsInterface",
            "outputs": [
                {
                    "internalType": "bool",
                    "name": "",
                    "type": "bool"
                }
            ],
            "stateMutability": "view",
            "type": "function"
        },
        {
            "inputs": [],
            "name": "symbol",
            "outputs": [
                {
                    "internalType": "string",
                    "name": "",
                    "type": "string"
                }
            ],
            "stateMutability": "view",
            "type": "function"
        },
        {
            "inputs": [
                {
                    "internalType": "uint256",
                    "name": "index",
                    "type": "uint256"
                }
            ],
            "name": "tokenByIndex",
            "outputs": [
                {
                    "internalType": "uint256",
                    "name": "",
                    "type": "uint256"
                }
            ],
            "stateMutability": "view",
            "type": "function"
        },
        {
            "inputs": [
                {
                    "internalType": "address",
                    "name": "owner",
                    "type": "address"
                },
                {
                    "internalType": "uint256",
                    "name": "index",
                    "type": "uint256"
                }
            ],
            "name": "tokenOfOwnerByIndex",
            "outputs": [
                {
                    "internalType": "uint256",
                    "name": "",
                    "type": "uint256"
                }
            ],
            "stateMutability": "view",
            "type": "function"
        },
        {
            "inputs": [
                {
                    "internalType": "uint256",
                    "name": "_tokenId",
                    "type": "uint256"
                }
            ],
            "name": "tokenURI",
            "outputs": [
                {
                    "internalType": "string",
                    "name": "",
                    "type": "string"
                }
            ],
            "stateMutability": "view",
            "type": "function"
        },
        {
            "inputs": [],
            "name": "totalSupply",
            "outputs": [
                {
                    "internalType": "uint256",
                    "name": "",
                    "type": "uint256"
                }
            ],
            "stateMutability": "view",
            "type": "function"
        },
        {
            "inputs": [
                {
                    "internalType": "address",
                    "name": "from",
                    "type": "address"
                },
                {
                    "internalType": "address",
                    "name": "to",
                    "type": "address"
                },
                {
                    "internalType": "uint256",
                    "name": "tokenId",
                    "type": "uint256"
                }
            ],
            "name": "transferFrom",
            "outputs": [],
            "stateMutability": "nonpayable",
            "type": "function"
        },
        {
            "inputs": [
                {
                    "components": [
                        {
                            "internalType": "address",
                            "name": "to",
                            "type": "address"
                        },
                        {
                            "internalType": "address",
                            "name": "royaltyRecipient",
                            "type": "address"
                        },
                        {
                            "internalType": "uint256",
                            "name": "royaltyBps",
                            "type": "uint256"
                        },
                        {
                            "internalType": "address",
                            "name": "primarySaleRecipient",
                            "type": "address"
                        },
                        {
                            "internalType": "string",
                            "name": "uri",
                            "type": "string"
                        },
                        {
                            "internalType": "uint256",
                            "name": "price",
                            "type": "uint256"
                        },
                        {
                            "internalType": "address",
                            "name": "currency",
                            "type": "address"
                        },
                        {
                            "internalType": "uint128",
                            "name": "validityStartTimestamp",
                            "type": "uint128"
                        },
                        {
                            "internalType": "uint128",
                            "name": "validityEndTimestamp",
                            "type": "uint128"
                        },
                        {
                            "internalType": "bytes32",
                            "name": "uid",
                            "type": "bytes32"
                        }
                    ],
                    "internalType": "struct ITokenERC721.MintRequest",
                    "name": "_req",
                    "type": "tuple"
                },
                {
                    "internalType": "bytes",
                    "name": "_signature",
                    "type": "bytes"
                }
            ],
            "name": "verify",
            "outputs": [
                {
                    "internalType": "bool",
                    "name": "",
                    "type": "bool"
                },
                {
                    "internalType": "address",
                    "name": "",
                    "type": "address"
                }
            ],
            "stateMutability": "view",
            "type": "function"
        }
    ],
    "bytecode": {
        "object": "0x608060405234801561001057600080fd5b506149ab806100206000396000f3fe6080604052600436106102ad5760003560e01c80636352211e11610175578063ac9650d8116100dc578063d45573f611610095578063e15916341161006f578063e159163414610929578063e8a3d48514610949578063e985e9c51461095e578063eb13554f146109a857600080fd5b8063d45573f614610894578063d547741f146108ca578063de903774146108ea57600080fd5b8063ac9650d8146107b8578063b24f2d39146107e5578063b88d4fde14610814578063c87b56dd14610834578063ca15c87314610854578063cb2ef6f71461087457600080fd5b8063938e3d7b1161012e578063938e3d7b1461071257806395d89b41146107325780639bcf7a1514610747578063a0a8e46014610767578063a217fddf14610783578063a22cb4651461079857600080fd5b80636352211e1461065d5780636f4f28371461067d57806370a082311461069d5780638da5cb5b146106bd5780639010d07c146106d257806391d14854146106f257600080fd5b80632a55205a1161021957806342842e0e116101d257806342842e0e1461056257806342966c68146105825780634cc157df146105a25780634f6ccce7146105e4578063572b6c0514610604578063600dd5ea1461063d57600080fd5b80632a55205a146104995780632c4510f8146104d85780632f2ff15d146104eb5780632f745c591461050b57806336568abe1461052b5780633b1475a71461054b57600080fd5b806313af40351161026b57806313af4035146103b257806318160ddd146103d25780631e7ac488146103e857806322dcd13e1461040857806323b872dd14610448578063248a9ca31461046857600080fd5b806275a317146102b257806301ffc9a7146102e557806306fdde0314610315578063079fe40e14610337578063081812fc14610370578063095ea7b314610390575b600080fd5b3480156102be57600080fd5b506102d26102cd366004613a5c565b6109c9565b6040519081526020015b60405180910390f35b3480156102f157600080fd5b50610305610300366004613ac4565b6109e0565b60405190151581526020016102dc565b34801561032157600080fd5b5061032a610a0c565b6040516102dc9190613b39565b34801561034357600080fd5b506101f954610358906001600160a01b031681565b6040516001600160a01b0390911681526020016102dc565b34801561037c57600080fd5b5061035861038b366004613b4c565b610a9f565b34801561039c57600080fd5b506103b06103ab366004613b65565b610ac7565b005b3480156103be57600080fd5b506103b06103cd366004613b8f565b610bf3565b3480156103de57600080fd5b506101c7546102d2565b3480156103f457600080fd5b506103b0610403366004613b65565b610ca9565b34801561041457600080fd5b506101fc5461043090600160801b90046001600160801b031681565b6040516001600160801b0390911681526020016102dc565b34801561045457600080fd5b506103b0610463366004613baa565b610d6f565b34801561047457600080fd5b506102d2610483366004613b4c565b600090815261012f602052604090206001015490565b3480156104a557600080fd5b506104b96104b4366004613be6565b610da7565b604080516001600160a01b0390931683526020830191909152016102dc565b6102d26104e6366004613c08565b610de4565b3480156104f757600080fd5b506103b0610506366004613c6c565b610f3a565b34801561051757600080fd5b506102d2610526366004613b65565b610f60565b34801561053757600080fd5b506103b0610546366004613c6c565b610ff7565b34801561055757600080fd5b506102d26101f85481565b34801561056e57600080fd5b506103b061057d366004613baa565b611085565b34801561058e57600080fd5b506103b061059d366004613b4c565b6110a0565b3480156105ae57600080fd5b506105c26105bd366004613b4c565b61111c565b604080516001600160a01b03909316835261ffff9091166020830152016102dc565b3480156105f057600080fd5b506102d26105ff366004613b4c565b61118c565b34801561061057600080fd5b5061030561061f366004613b8f565b6001600160a01b0316600090815260cb602052604090205460ff1690565b34801561064957600080fd5b506103b0610658366004613b65565b611221565b34801561066957600080fd5b50610358610678366004613b4c565b6112de565b34801561068957600080fd5b506103b0610698366004613b8f565b61133f565b3480156106a957600080fd5b506102d26106b8366004613b8f565b611396565b3480156106c957600080fd5b5061035861141d565b3480156106de57600080fd5b506103586106ed366004613be6565b611455565b3480156106fe57600080fd5b5061030561070d366004613c6c565b61146e565b34801561071e57600080fd5b506103b061072d366004613c98565b61149a565b34801561073e57600080fd5b5061032a6114b9565b34801561075357600080fd5b506103b0610762366004613cd9565b6114c9565b34801561077357600080fd5b50604051600181526020016102dc565b34801561078f57600080fd5b506102d2600081565b3480156107a457600080fd5b506103b06107b3366004613d0c565b6115a2565b3480156107c457600080fd5b506107d86107d3366004613d43565b6115b4565b6040516102dc9190613db7565b3480156107f157600080fd5b506101fb546101fc546001600160a01b03909116906001600160801b03166105c2565b34801561082057600080fd5b506103b061082f366004613edf565b6116a8565b34801561084057600080fd5b5061032a61084f366004613b4c565b6116e1565b34801561086057600080fd5b506102d261086f366004613b4c565b611784565b34801561088057600080fd5b5069426f6f6d45524337323160b01b6102d2565b3480156108a057600080fd5b506101fa546101fc546001600160a01b0390911690600160801b90046001600160801b03166105c2565b3480156108d657600080fd5b506103b06108e5366004613c6c565b61179c565b3480156108f657600080fd5b5061090a610905366004613c08565b6117c2565b6040805192151583526001600160a01b039091166020830152016102dc565b34801561093557600080fd5b506103b061094436600461400c565b61182b565b34801561095557600080fd5b5061032a611aa2565b34801561096a57600080fd5b5061030561097936600461411e565b6001600160a01b0391821660009081526101986020908152604080832093909416825291909152205460ff1690565b3480156109b457600080fd5b506101fa54610358906001600160a01b031681565b60006109d6848484611b31565b90505b9392505050565b60006109eb82611bc3565b80610a0657506001600160e01b0319821663152a902d60e11b145b92915050565b60606101938054610a1c90614148565b80601f0160208091040260200160405190810160405280929190818152602001828054610a4890614148565b8015610a955780601f10610a6a57610100808354040283529160200191610a95565b820191906000526020600020905b815481529060010190602001808311610a7857829003601f168201915b5050505050905090565b6000610aaa82611be8565b50600090815261019760205260409020546001600160a01b031690565b6000610ad2826112de565b9050806001600160a01b0316836001600160a01b031603610b445760405162461bcd60e51b815260206004820152602160248201527f4552433732313a20617070726f76616c20746f2063757272656e74206f776e656044820152603960f91b60648201526084015b60405180910390fd5b806001600160a01b0316610b56611c48565b6001600160a01b03161480610b725750610b7281610979611c48565b610be45760405162461bcd60e51b815260206004820152603d60248201527f4552433732313a20617070726f76652063616c6c6572206973206e6f7420746f60448201527f6b656e206f776e6572206f7220617070726f76656420666f7220616c6c0000006064820152608401610b3b565b610bee8383611c52565b505050565b6000610bfe81611cc1565b610c0960008361146e565b610c555760405162461bcd60e51b815260206004820152601b60248201527f6e6577206f776e6572206e6f74206d6f64756c652061646d696e2e00000000006044820152606401610b3b565b6101f780546001600160a01b038481166001600160a01b0319831681179093556040519116919082907f8292fce18fa69edf4db7b94ea2e58241df0ae57f97e0a6c9b29067028bf92d7690600090a3505050565b6000610cb481611cc1565b612710821115610cf65760405162461bcd60e51b815260206004820152600d60248201526c313839901e1e9018981818181760991b6044820152606401610b3b565b6101fc80546001600160801b03166001600160401b038416600160801b021790556101fa80546001600160a01b0319166001600160a01b0385169081179091556040518381527fe2497bd806ec41a6e0dd992c29a72efc0ef8fec9092d1978fd4a1e00b2f18304906020015b60405180910390a2505050565b610d80610d7a611c48565b82611cd2565b610d9c5760405162461bcd60e51b8152600401610b3b90614182565b610bee838383611d52565b600080600080610db68661111c565b90945084925061ffff169050612710610dcf82876141e5565b610dd99190614204565b925050509250929050565b6000610dee611ec4565b6000610dfb858585611f1d565b9050600080610e0d6020880188613b8f565b6001600160a01b031614610e2d57610e286020870187613b8f565b610e35565b610e35611c48565b9050610e4d81610e486080890189614226565b611b31565b92506000610e616040880160208901613b8f565b6001600160a01b031614610ed1576040518060400160405280876020016020810190610e8d9190613b8f565b6001600160a01b0390811682526040898101356020938401526000878152610200845220835181546001600160a01b03191692169190911781559101516001909101555b610ee2610edd8761426c565b61201d565b82816001600160a01b0316836001600160a01b03167f110d160a1bedeea919a88fbc4b2a9fb61b7e664084391b6ca2740db66fef80fe89604051610f2691906143a7565b60405180910390a450506109d96001606555565b600082815261012f6020526040902060010154610f5681611cc1565b610bee8383612155565b6000610f6b83611396565b8210610fcd5760405162461bcd60e51b815260206004820152602b60248201527f455243373231456e756d657261626c653a206f776e657220696e646578206f7560448201526a74206f6620626f756e647360a81b6064820152608401610b3b565b506001600160a01b039190911660009081526101c560209081526040808320938352929052205490565b610fff611c48565b6001600160a01b0316816001600160a01b0316146110775760405162461bcd60e51b815260206004820152602f60248201527f416363657373436f6e74726f6c3a2063616e206f6e6c792072656e6f756e636560448201526e103937b632b9903337b91039b2b63360891b6064820152608401610b3b565b6110818282612178565b5050565b610bee838383604051806020016040528060008152506116a8565b6110ab610d7a611c48565b6111105760405162461bcd60e51b815260206004820152603060248201527f4552433732314275726e61626c653a2063616c6c6572206973206e6f74206f7760448201526f1b995c881b9bdc88185c1c1c9bdd995960821b6064820152608401610b3b565b6111198161219b565b50565b600081815261020060209081526040808320815180830190925280546001600160a01b0316808352600190910154928201929092528291156111645780516020820151611182565b6101fb546101fc546001600160a01b03909116906001600160801b03165b9250925050915091565b60006111986101c75490565b82106111fb5760405162461bcd60e51b815260206004820152602c60248201527f455243373231456e756d657261626c653a20676c6f62616c20696e646578206f60448201526b7574206f6620626f756e647360a01b6064820152608401610b3b565b6101c7828154811061120f5761120f6144b7565b90600052602060002001549050919050565b600061122c81611cc1565b6127108211156112735760405162461bcd60e51b815260206004820152601260248201527165786365656420726f79616c74792062707360701b6044820152606401610b3b565b6101fb80546001600160a01b0319166001600160a01b0385169081179091556101fc80546001600160801b0319166001600160801b0385161790556040518381527f90d7ec04bcb8978719414f82e52e4cb651db41d0e6f8cea6118c2191e6183adb90602001610d62565b600081815261019560205260408120546001600160a01b031680610a065760405162461bcd60e51b8152602060048201526018602482015277115490cdcc8c4e881a5b9d985b1a59081d1bdad95b88125160421b6044820152606401610b3b565b600061134a81611cc1565b6101f980546001600160a01b0319166001600160a01b0384169081179091556040517f299d17e95023f496e0ffc4909cff1a61f74bb5eb18de6f900f4155bfa1b3b33390600090a25050565b60006001600160a01b0382166114005760405162461bcd60e51b815260206004820152602960248201527f4552433732313a2061646472657373207a65726f206973206e6f7420612076616044820152683634b21037bbb732b960b91b6064820152608401610b3b565b506001600160a01b03166000908152610196602052604090205490565b6101f7546000906114389082906001600160a01b031661146e565b6114425750600090565b6101f7546001600160a01b03165b905090565b6000828152610161602052604081206109d9908361223f565b600091825261012f602090815260408084206001600160a01b0393909316845291905290205460ff1690565b60006114a581611cc1565b6101fd6114b383858361451b565b50505050565b60606101948054610a1c90614148565b60006114d481611cc1565b61271082111561151b5760405162461bcd60e51b815260206004820152601260248201527165786365656420726f79616c74792062707360701b6044820152606401610b3b565b6040805180820182526001600160a01b03858116808352602080840187815260008a81526102008352869020945185546001600160a01b031916941693909317845591516001909301929092559151848152909186917f7365cf4122f072a3365c20d54eff9b38d73c096c28e1892ec8f5b0e403a0f12d910160405180910390a350505050565b6110816115ad611c48565b838361224b565b6060816001600160401b038111156115ce576115ce613e19565b60405190808252806020026020018201604052801561160157816020015b60608152602001906001900390816115ec5790505b50905060005b828110156116a15761167130858584818110611625576116256144b7565b90506020028101906116379190614226565b8080601f01602080910402602001604051908101604052809392919081815260200183838082843760009201919091525061231a92505050565b828281518110611683576116836144b7565b60200260200101819052508080611699906145db565b915050611607565b5092915050565b6116b96116b3611c48565b83611cd2565b6116d55760405162461bcd60e51b8152600401610b3b90614182565b6114b38484848461240e565b60008181526101ff602052604090208054606091906116ff90614148565b80601f016020809104026020016040519081016040528092919081815260200182805461172b90614148565b80156117785780601f1061174d57610100808354040283529160200191611778565b820191906000526020600020905b81548152906001019060200180831161175b57829003601f168201915b50505050509050919050565b600081815261016160205260408120610a0690612441565b600082815261012f60205260409020600101546117b881611cc1565b610bee8383612178565b60008060006117d286868661244b565b61012087013560009081526101fe602052604090205490915060ff1615801561182057506118207f9f2df0fed2c77648de5860a4cc508cd0818c85b8b8a1ab4ceeef8d981c8956a68261146e565b969095509350505050565b600054610100900460ff161580801561184b5750600054600160ff909116105b806118655750303b158015611865575060005460ff166001145b6118c85760405162461bcd60e51b815260206004820152602e60248201527f496e697469616c697a61626c653a20636f6e747261637420697320616c72656160448201526d191e481a5b9a5d1a585b1a5e995960921b6064820152608401610b3b565b6000805460ff1916600117905580156118eb576000805461ff0019166101001790555b6118f36124a7565b6119396040518060400160405280600b81526020016a546f6b656e45524337323160a81b815250604051806040016040528060018152602001603160f81b8152506124d8565b61194287612509565b61194c8a8a612541565b6101fb80546001600160a01b03199081166001600160a01b03888116919091179092556101fc80546001600160801b0319166001600160801b0388161790556101fa805482168584161790556101f980549091169188169190911790556101fd6119b689826145f4565b506101fc80546001600160801b03808616600160801b0291161790556101f780546001600160a01b038d166001600160a01b03199091161790556119fb60008c612572565b611a257f9f2df0fed2c77648de5860a4cc508cd0818c85b8b8a1ab4ceeef8d981c8956a68c612572565b611a4f7f8502233096d909befbda0999bb8ea2f3a6be3c138b9fbf003752a4c8bce86f6c8c612572565b8015611a95576000805461ff0019169055604051600181527f7f26b83ff96e1f2b6a682f133852f6798a09c465da95921460cefb38474024989060200160405180910390a15b5050505050505050505050565b6101fd8054611ab090614148565b80601f0160208091040260200160405190810160405280929190818152602001828054611adc90614148565b8015611b295780601f10611afe57610100808354040283529160200191611b29565b820191906000526020600020905b815481529060010190602001808311611b0c57829003601f168201915b505050505081565b600060016101f86000828254611b4791906146b3565b90915550506101f85460008181526101ff60205260409020909150611b6d83858361451b565b50611b78848261257c565b80846001600160a01b03167f9d89e36eadf856db0ad9ffb5a569e07f95634dddd9501141ecf04820484ad0dc8585604051611bb49291906146cb565b60405180910390a39392505050565b60006001600160e01b0319821663780e9d6360e01b1480610a065750610a0682612717565b600081815261019560205260409020546001600160a01b03166111195760405162461bcd60e51b8152602060048201526018602482015277115490cdcc8c4e881a5b9d985b1a59081d1bdad95b88125160421b6044820152606401610b3b565b6000611450612757565b60008181526101976020526040902080546001600160a01b0319166001600160a01b0384169081179091558190611c88826112de565b6001600160a01b03167f8c5be1e5ebec7d5bd14f71427d1e84f3dd0314c0f7b2291e5b200ac8c7c3b92560405160405180910390a45050565b61111981611ccd611c48565b612781565b600080611cde836112de565b9050806001600160a01b0316846001600160a01b03161480611d2657506001600160a01b038082166000908152610198602090815260408083209388168352929052205460ff165b80611d4a5750836001600160a01b0316611d3f84610a9f565b6001600160a01b0316145b949350505050565b826001600160a01b0316611d65826112de565b6001600160a01b031614611d8b5760405162461bcd60e51b8152600401610b3b906146df565b6001600160a01b038216611ded5760405162461bcd60e51b8152602060048201526024808201527f4552433732313a207472616e7366657220746f20746865207a65726f206164646044820152637265737360e01b6064820152608401610b3b565b611df88383836127da565b826001600160a01b0316611e0b826112de565b6001600160a01b031614611e315760405162461bcd60e51b8152600401610b3b906146df565b60008181526101976020908152604080832080546001600160a01b03199081169091556001600160a01b03878116808652610196855283862080546000190190559087168086528386208054600101905586865261019590945282852080549092168417909155905184937fddf252ad1be2c89b69c2b068fc378daa952ba7f163c4a11628f55a4df523b3ef91a4505050565b600260655403611f165760405162461bcd60e51b815260206004820152601f60248201527f5265656e7472616e637947756172643a207265656e7472616e742063616c6c006044820152606401610b3b565b6002606555565b6000806000611f2d8686866117c2565b9150915081611f725760405162461bcd60e51b8152602060048201526011602482015270696e76616c6964207369676e617475726560781b6044820152606401610b3b565b42611f84610100880160e08901614724565b6001600160801b031611158015611fb5575042611fa961012088016101008901614724565b6001600160801b031610155b611ff35760405162461bcd60e51b815260206004820152600f60248201526e1c995c5d595cdd08195e1c1a5c9959608a1b6044820152606401610b3b565b61012086013560009081526101fe60205260409020805460ff191660011790559150509392505050565b8060a0015160000361202c5750565b60a08101516101fc546000906127109061205690600160801b90046001600160801b0316846141e5565b6120609190614204565b905073eeeeeeeeeeeeeeeeeeeeeeeeeeeeeeeeeeeeeeee6001600160a01b03168360c001516001600160a01b0316036120db578134146120db5760405162461bcd60e51b815260206004820152601660248201527536bab9ba1039b2b732103a37ba30b610383934b1b29760511b6044820152606401610b3b565b60608301516000906001600160a01b0316156120fb578360600151612109565b6101f9546001600160a01b03165b905061212e8460c0015161211b611c48565b6101fa546001600160a01b031685612831565b6114b38460c0015161213e611c48565b83612149868861473f565b612831565b6001606555565b61215f8282612877565b600082815261016160205260409020610bee90826128ff565b6121828282612914565b600082815261016160205260409020610bee908261299a565b60006121a6826112de565b90506121b4816000846127da565b6121bd826112de565b60008381526101976020908152604080832080546001600160a01b03199081169091556001600160a01b03851680855261019684528285208054600019019055878552610195909352818420805490911690555192935084927fddf252ad1be2c89b69c2b068fc378daa952ba7f163c4a11628f55a4df523b3ef908390a45050565b60006109d983836129af565b816001600160a01b0316836001600160a01b0316036122ac5760405162461bcd60e51b815260206004820152601960248201527f4552433732313a20617070726f766520746f2063616c6c6572000000000000006044820152606401610b3b565b6001600160a01b0383811660008181526101986020908152604080832094871680845294825291829020805460ff191686151590811790915591519182527f17307eab39ab6107e8899845ad3d59bd9653f200f220920489ca2b5937696c31910160405180910390a3505050565b60606001600160a01b0383163b6123825760405162461bcd60e51b815260206004820152602660248201527f416464726573733a2064656c65676174652063616c6c20746f206e6f6e2d636f6044820152651b9d1c9858dd60d21b6064820152608401610b3b565b600080846001600160a01b03168460405161239d9190614756565b600060405180830381855af49150503d80600081146123d8576040519150601f19603f3d011682016040523d82523d6000602084013e6123dd565b606091505b5091509150612405828260405180606001604052806027815260200161494f602791396129d9565b95945050505050565b612419848484611d52565b612425848484846129f2565b6114b35760405162461bcd60e51b8152600401610b3b90614772565b6000610a06825490565b60006109d683838080601f0160208091040260200160405190810160405280939291908181526020018383808284376000920191909152506124a192506124959150889050612afa565b80519060200120612c34565b90612c82565b600054610100900460ff166124ce5760405162461bcd60e51b8152600401610b3b906147c4565b6124d6612ca6565b565b600054610100900460ff166124ff5760405162461bcd60e51b8152600401610b3b906147c4565b6110818282612ccd565b600054610100900460ff166125305760405162461bcd60e51b8152600401610b3b906147c4565b612538612d0e565b61111981612d35565b600054610100900460ff166125685760405162461bcd60e51b8152600401610b3b906147c4565b6110818282612dc4565b6110818282612155565b6001600160a01b0382166125d25760405162461bcd60e51b815260206004820181905260248201527f4552433732313a206d696e7420746f20746865207a65726f20616464726573736044820152606401610b3b565b600081815261019560205260409020546001600160a01b0316156126385760405162461bcd60e51b815260206004820152601c60248201527f4552433732313a20746f6b656e20616c7265616479206d696e746564000000006044820152606401610b3b565b612644600083836127da565b600081815261019560205260409020546001600160a01b0316156126aa5760405162461bcd60e51b815260206004820152601c60248201527f4552433732313a20746f6b656e20616c7265616479206d696e746564000000006044820152606401610b3b565b6001600160a01b0382166000818152610196602090815260408083208054600101905584835261019590915280822080546001600160a01b0319168417905551839291907fddf252ad1be2c89b69c2b068fc378daa952ba7f163c4a11628f55a4df523b3ef908290a45050565b60006001600160e01b031982166380ac58cd60e01b148061274857506001600160e01b03198216635b5e139f60e01b145b80610a065750610a0682612e06565b33600090815260cb602052604081205460ff161561277c575060131936013560601c90565b503390565b61278b828261146e565b6110815761279881612e2b565b6127a3836020612e3d565b6040516020016127b492919061480f565b60408051601f198184030181529082905262461bcd60e51b8252610b3b91600401613b39565b6127e5838383612fd8565b6128107f8502233096d909befbda0999bb8ea2f3a6be3c138b9fbf003752a4c8bce86f6c600061146e565b15801561282557506001600160a01b03831615155b80156114b35750505050565b80156114b35773eeeeeeeeeeeeeeeeeeeeeeeeeeeeeeeeeeeeeeed196001600160a01b0385160161286b576128668282613092565b6114b3565b6114b384848484613135565b612881828261146e565b61108157600082815261012f602090815260408083206001600160a01b03851684529091529020805460ff191660011790556128bb611c48565b6001600160a01b0316816001600160a01b0316837f2f8788117e7eff1d82e926ec794901d17c78024a50270940304540a733656f0d60405160405180910390a45050565b60006109d9836001600160a01b038416613188565b61291e828261146e565b1561108157600082815261012f602090815260408083206001600160a01b03851684529091529020805460ff19169055612956611c48565b6001600160a01b0316816001600160a01b0316837ff6391f5c32d9c69d2a47ea670b442974b53935d1edc7fd64eb21e047a839171b60405160405180910390a45050565b60006109d9836001600160a01b0384166131d7565b60008260000182815481106129c6576129c66144b7565b9060005260206000200154905092915050565b606083156129e85750816109d9565b6109d983836132ca565b60006001600160a01b0384163b15612aef57836001600160a01b031663150b7a02612a1b611c48565b8786866040518563ffffffff1660e01b8152600401612a3d9493929190614884565b6020604051808303816000875af1925050508015612a78575060408051601f3d908101601f19168201909252612a75918101906148c1565b60015b612ad5573d808015612aa6576040519150601f19603f3d011682016040523d82523d6000602084013e612aab565b606091505b508051600003612acd5760405162461bcd60e51b8152600401610b3b90614772565b805181602001fd5b6001600160e01b031916630a85bd0160e11b149050611d4a565b506001949350505050565b60607f86633b4ffa94b7c3d316ca70d7d2700f3fdfa7a7806efd31499b513d9176692e612b2a6020840184613b8f565b612b3a6040850160208601613b8f565b6040850135612b4f6080870160608801613b8f565b612b5c6080880188614226565b604051612b6a9291906148de565b60405190819003902060a0880135612b8860e08a0160c08b01613b8f565b612b996101008b0160e08c01614724565b612bab6101208c016101008d01614724565b60408051602081019b909b526001600160a01b03998a16908b015296881660608a0152608089019590955292861660a088015260c087019190915260e08601529092166101008401526001600160801b03918216610120808501919091529116610140830152830135610160820152610180016040516020818303038152906040529050919050565b6000610a06612c416132f4565b8360405161190160f01b6020820152602281018390526042810182905260009060620160405160208183030381529060405280519060200120905092915050565b6000806000612c91858561336f565b91509150612c9e816133b4565b509392505050565b600054610100900460ff1661214e5760405162461bcd60e51b8152600401610b3b906147c4565b600054610100900460ff16612cf45760405162461bcd60e51b8152600401610b3b906147c4565b815160209283012081519190920120609791909155609855565b600054610100900460ff166124d65760405162461bcd60e51b8152600401610b3b906147c4565b600054610100900460ff16612d5c5760405162461bcd60e51b8152600401610b3b906147c4565b60005b815181101561108157600160cb6000848481518110612d8057612d806144b7565b6020908102919091018101516001600160a01b03168252810191909152604001600020805460ff191691151591909117905580612dbc816145db565b915050612d5f565b600054610100900460ff16612deb5760405162461bcd60e51b8152600401610b3b906147c4565b610193612df883826145f4565b50610194610bee82826145f4565b60006001600160e01b03198216635a05180f60e01b1480610a065750610a06826134fe565b6060610a066001600160a01b03831660145b60606000612e4c8360026141e5565b612e579060026146b3565b6001600160401b03811115612e6e57612e6e613e19565b6040519080825280601f01601f191660200182016040528015612e98576020820181803683370190505b509050600360fc1b81600081518110612eb357612eb36144b7565b60200101906001600160f81b031916908160001a905350600f60fb1b81600181518110612ee257612ee26144b7565b60200101906001600160f81b031916908160001a9053506000612f068460026141e5565b612f119060016146b3565b90505b6001811115612f89576f181899199a1a9b1b9c1cb0b131b232b360811b85600f1660108110612f4557612f456144b7565b1a60f81b828281518110612f5b57612f5b6144b7565b60200101906001600160f81b031916908160001a90535060049490941c93612f82816148ee565b9050612f14565b5083156109d95760405162461bcd60e51b815260206004820181905260248201527f537472696e67733a20686578206c656e67746820696e73756666696369656e746044820152606401610b3b565b6001600160a01b03831661303557613030816101c7805460008381526101c860205260408120829055600182018355919091527fff6df30967a6a678f565c59a19e91e5c0dbb20cfe9f9bf26d7da6dea0fffa24c0155565b613058565b816001600160a01b0316836001600160a01b031614613058576130588382613533565b6001600160a01b03821661306f57610bee816135d5565b826001600160a01b0316826001600160a01b031614610bee57610bee828261368a565b6000826001600160a01b03168260405160006040518083038185875af1925050503d80600081146130df576040519150601f19603f3d011682016040523d82523d6000602084013e6130e4565b606091505b5050905080610bee5760405162461bcd60e51b815260206004820152601c60248201527f6e617469766520746f6b656e207472616e73666572206661696c6564000000006044820152606401610b3b565b816001600160a01b0316836001600160a01b031603156114b357306001600160a01b03841603613173576128666001600160a01b03851683836136d0565b6114b36001600160a01b038516848484613733565b60008181526001830160205260408120546131cf57508154600181810184556000848152602080822090930184905584548482528286019093526040902091909155610a06565b506000610a06565b600081815260018301602052604081205480156132c05760006131fb60018361473f565b855490915060009061320f9060019061473f565b905081811461327457600086600001828154811061322f5761322f6144b7565b9060005260206000200154905080876000018481548110613252576132526144b7565b6000918252602080832090910192909255918252600188019052604090208390555b855486908061328557613285614905565b600190038181906000526020600020016000905590558560010160008681526020019081526020016000206000905560019350505050610a06565b6000915050610a06565b8151156132da5781518083602001fd5b8060405162461bcd60e51b8152600401610b3b9190613b39565b60006114507f8b73c3c69bb8fe3d512ecc4cf759cc79239f7b179b0ffacaa9a75d522b39400f61332360975490565b6098546040805160208101859052908101839052606081018290524660808201523060a082015260009060c0016040516020818303038152906040528051906020012090509392505050565b60008082516041036133a55760208301516040840151606085015160001a6133998782858561376b565b945094505050506133ad565b506000905060025b9250929050565b60008160048111156133c8576133c861491b565b036133d05750565b60018160048111156133e4576133e461491b565b036134315760405162461bcd60e51b815260206004820152601860248201527f45434453413a20696e76616c6964207369676e617475726500000000000000006044820152606401610b3b565b60028160048111156134455761344561491b565b036134925760405162461bcd60e51b815260206004820152601f60248201527f45434453413a20696e76616c6964207369676e6174757265206c656e677468006044820152606401610b3b565b60038160048111156134a6576134a661491b565b036111195760405162461bcd60e51b815260206004820152602260248201527f45434453413a20696e76616c6964207369676e6174757265202773272076616c604482015261756560f01b6064820152608401610b3b565b60006001600160e01b03198216637965db0b60e01b1480610a0657506301ffc9a760e01b6001600160e01b0319831614610a06565b6000600161354084611396565b61354a919061473f565b60008381526101c660205260409020549091508082146135a0576001600160a01b03841660009081526101c56020908152604080832085845282528083205484845281842081905583526101c690915290208190555b5060009182526101c6602090815260408084208490556001600160a01b0390941683526101c581528383209183525290812055565b6101c7546000906135e89060019061473f565b60008381526101c860205260408120546101c78054939450909284908110613612576136126144b7565b90600052602060002001549050806101c78381548110613634576136346144b7565b60009182526020808320909101929092558281526101c890915260408082208490558582528120556101c780548061366e5761366e614905565b6001900381819060005260206000200160009055905550505050565b600061369583611396565b6001600160a01b0390931660009081526101c56020908152604080832086845282528083208590559382526101c69052919091209190915550565b6040516001600160a01b038316602482015260448101829052610bee90849063a9059cbb60e01b906064015b60408051601f198184030181529190526020810180516001600160e01b03166001600160e01b03199093169290921790915261382f565b6040516001600160a01b03808516602483015283166044820152606481018290526114b39085906323b872dd60e01b906084016136fc565b6000807f7fffffffffffffffffffffffffffffff5d576e7357a4501ddfe92f46681b20a08311156137a25750600090506003613826565b6040805160008082526020820180845289905260ff881692820192909252606081018690526080810185905260019060a0016020604051602081039080840390855afa1580156137f6573d6000803e3d6000fd5b5050604051601f1901519150506001600160a01b03811661381f57600060019250925050613826565b9150600090505b94509492505050565b6000613884826040518060400160405280602081526020017f5361666545524332303a206c6f772d6c6576656c2063616c6c206661696c6564815250856001600160a01b03166139019092919063ffffffff16565b805190915015610bee57808060200190518101906138a29190614931565b610bee5760405162461bcd60e51b815260206004820152602a60248201527f5361666545524332303a204552433230206f7065726174696f6e20646964206e6044820152691bdd081cdd58d8d9595960b21b6064820152608401610b3b565b60606109d6848460008585600080866001600160a01b031685876040516139289190614756565b60006040518083038185875af1925050503d8060008114613965576040519150601f19603f3d011682016040523d82523d6000602084013e61396a565b606091505b509150915061397b87838387613986565b979650505050505050565b606083156139f55782516000036139ee576001600160a01b0385163b6139ee5760405162461bcd60e51b815260206004820152601d60248201527f416464726573733a2063616c6c20746f206e6f6e2d636f6e74726163740000006044820152606401610b3b565b5081611d4a565b611d4a83836132ca565b80356001600160a01b0381168114613a1657600080fd5b919050565b60008083601f840112613a2d57600080fd5b5081356001600160401b03811115613a4457600080fd5b6020830191508360208285010111156133ad57600080fd5b600080600060408486031215613a7157600080fd5b613a7a846139ff565b925060208401356001600160401b03811115613a9557600080fd5b613aa186828701613a1b565b9497909650939450505050565b6001600160e01b03198116811461111957600080fd5b600060208284031215613ad657600080fd5b81356109d981613aae565b60005b83811015613afc578181015183820152602001613ae4565b838111156114b35750506000910152565b60008151808452613b25816020860160208601613ae1565b601f01601f19169290920160200192915050565b6020815260006109d96020830184613b0d565b600060208284031215613b5e57600080fd5b5035919050565b60008060408385031215613b7857600080fd5b613b81836139ff565b946020939093013593505050565b600060208284031215613ba157600080fd5b6109d9826139ff565b600080600060608486031215613bbf57600080fd5b613bc8846139ff565b9250613bd6602085016139ff565b9150604084013590509250925092565b60008060408385031215613bf957600080fd5b50508035926020909101359150565b600080600060408486031215613c1d57600080fd5b83356001600160401b0380821115613c3457600080fd5b908501906101408288031215613c4957600080fd5b90935060208501359080821115613c5f57600080fd5b50613aa186828701613a1b565b60008060408385031215613c7f57600080fd5b82359150613c8f602084016139ff565b90509250929050565b60008060208385031215613cab57600080fd5b82356001600160401b03811115613cc157600080fd5b613ccd85828601613a1b565b90969095509350505050565b600080600060608486031215613cee57600080fd5b83359250613bd6602085016139ff565b801515811461111957600080fd5b60008060408385031215613d1f57600080fd5b613d28836139ff565b91506020830135613d3881613cfe565b809150509250929050565b60008060208385031215613d5657600080fd5b82356001600160401b0380821115613d6d57600080fd5b818501915085601f830112613d8157600080fd5b813581811115613d9057600080fd5b8660208260051b8501011115613da557600080fd5b60209290920196919550909350505050565b6000602080830181845280855180835260408601915060408160051b870101925083870160005b82811015613e0c57603f19888603018452613dfa858351613b0d565b94509285019290850190600101613dde565b5092979650505050505050565b634e487b7160e01b600052604160045260246000fd5b60405161014081016001600160401b0381118282101715613e5257613e52613e19565b60405290565b604051601f8201601f191681016001600160401b0381118282101715613e8057613e80613e19565b604052919050565b60006001600160401b03831115613ea157613ea1613e19565b613eb4601f8401601f1916602001613e58565b9050828152838383011115613ec857600080fd5b828260208301376000602084830101529392505050565b60008060008060808587031215613ef557600080fd5b613efe856139ff565b9350613f0c602086016139ff565b92506040850135915060608501356001600160401b03811115613f2e57600080fd5b8501601f81018713613f3f57600080fd5b613f4e87823560208401613e88565b91505092959194509250565b600082601f830112613f6b57600080fd5b6109d983833560208501613e88565b600082601f830112613f8b57600080fd5b813560206001600160401b03821115613fa657613fa6613e19565b8160051b613fb5828201613e58565b9283528481018201928281019087851115613fcf57600080fd5b83870192505b8483101561397b57613fe6836139ff565b82529183019190830190613fd5565b80356001600160801b0381168114613a1657600080fd5b6000806000806000806000806000806101408b8d03121561402c57600080fd5b6140358b6139ff565b995060208b01356001600160401b038082111561405157600080fd5b61405d8e838f01613f5a565b9a5060408d013591508082111561407357600080fd5b61407f8e838f01613f5a565b995060608d013591508082111561409557600080fd5b6140a18e838f01613f5a565b985060808d01359150808211156140b757600080fd5b506140c48d828e01613f7a565b9650506140d360a08c016139ff565b94506140e160c08c016139ff565b93506140ef60e08c01613ff5565b92506140fe6101008c01613ff5565b915061410d6101208c016139ff565b90509295989b9194979a5092959850565b6000806040838503121561413157600080fd5b61413a836139ff565b9150613c8f602084016139ff565b600181811c9082168061415c57607f821691505b60208210810361417c57634e487b7160e01b600052602260045260246000fd5b50919050565b6020808252602d908201527f4552433732313a2063616c6c6572206973206e6f7420746f6b656e206f776e6560408201526c1c881bdc88185c1c1c9bdd9959609a1b606082015260800190565b634e487b7160e01b600052601160045260246000fd5b60008160001904831182151516156141ff576141ff6141cf565b500290565b60008261422157634e487b7160e01b600052601260045260246000fd5b500490565b6000808335601e1984360301811261423d57600080fd5b8301803591506001600160401b0382111561425757600080fd5b6020019150368190038213156133ad57600080fd5b6000610140823603121561427f57600080fd5b614287613e2f565b614290836139ff565b815261429e602084016139ff565b6020820152604083013560408201526142b9606084016139ff565b606082015260808301356001600160401b038111156142d757600080fd5b6142e336828601613f5a565b60808301525060a083013560a08201526142ff60c084016139ff565b60c082015261431060e08401613ff5565b60e0820152610100614323818501613ff5565b9082015261012092830135928101929092525090565b6000808335601e1984360301811261435057600080fd5b83016020810192503590506001600160401b0381111561436f57600080fd5b8036038213156133ad57600080fd5b81835281816020850137506000828201602090810191909152601f909101601f19169091010190565b602081526143c8602082016143bb846139ff565b6001600160a01b03169052565b60006143d6602084016139ff565b6001600160a01b038116604084015250604083013560608301526143fc606084016139ff565b6001600160a01b0381166080840152506144196080840184614339565b6101408060a08601526144316101608601838561437e565b925060a086013560c086015261444960c087016139ff565b6001600160a01b03811660e0870152915061446660e08701613ff5565b915061010061447f818701846001600160801b03169052565b61448a818801613ff5565b9250506101206144a4818701846001600160801b03169052565b9590950135939094019290925250919050565b634e487b7160e01b600052603260045260246000fd5b601f821115610bee57600081815260208120601f850160051c810160208610156144f45750805b601f850160051c820191505b8181101561451357828155600101614500565b505050505050565b6001600160401b0383111561453257614532613e19565b614546836145408354614148565b836144cd565b6000601f84116001811461457a57600085156145625750838201355b600019600387901b1c1916600186901b1783556145d4565b600083815260209020601f19861690835b828110156145ab578685013582556020948501946001909201910161458b565b50868210156145c85760001960f88860031b161c19848701351681555b505060018560011b0183555b5050505050565b6000600182016145ed576145ed6141cf565b5060010190565b81516001600160401b0381111561460d5761460d613e19565b6146218161461b8454614148565b846144cd565b602080601f831160018114614656576000841561463e5750858301515b600019600386901b1c1916600185901b178555614513565b600085815260208120601f198616915b8281101561468557888601518255948401946001909101908401614666565b50858210156146a35787850151600019600388901b60f8161c191681555b5050505050600190811b01905550565b600082198211156146c6576146c66141cf565b500190565b6020815260006109d660208301848661437e565b60208082526025908201527f4552433732313a207472616e736665722066726f6d20696e636f72726563742060408201526437bbb732b960d91b606082015260800190565b60006020828403121561473657600080fd5b6109d982613ff5565b600082821015614751576147516141cf565b500390565b60008251614768818460208701613ae1565b9190910192915050565b60208082526032908201527f4552433732313a207472616e7366657220746f206e6f6e20455243373231526560408201527131b2b4bb32b91034b6b83632b6b2b73a32b960711b606082015260800190565b6020808252602b908201527f496e697469616c697a61626c653a20636f6e7472616374206973206e6f74206960408201526a6e697469616c697a696e6760a81b606082015260800190565b7f416363657373436f6e74726f6c3a206163636f756e7420000000000000000000815260008351614847816017850160208801613ae1565b7001034b99036b4b9b9b4b733903937b6329607d1b6017918401918201528351614878816028840160208801613ae1565b01602801949350505050565b6001600160a01b03858116825284166020820152604081018390526080606082018190526000906148b790830184613b0d565b9695505050505050565b6000602082840312156148d357600080fd5b81516109d981613aae565b8183823760009101908152919050565b6000816148fd576148fd6141cf565b506000190190565b634e487b7160e01b600052603160045260246000fd5b634e487b7160e01b600052602160045260246000fd5b60006020828403121561494357600080fd5b81516109d981613cfe56fe416464726573733a206c6f772d6c6576656c2064656c65676174652063616c6c206661696c6564a2646970667358221220ffdc957d65d6020f7c49c9ab4f37e31c1c5022dda63b4602846ce3faf3fbd97a64736f6c634300080f0033",
        "linkReferences": {}
    },
    "methodIdentifiers": {
        "DEFAULT_ADMIN_ROLE()": "a217fddf",
        "approve(address,uint256)": "095ea7b3",
        "balanceOf(address)": "70a08231",
        "burn(uint256)": "42966c68",
        "contractType()": "cb2ef6f7",
        "contractURI()": "e8a3d485",
        "contractVersion()": "a0a8e460",
        "getApproved(uint256)": "081812fc",
        "getDefaultRoyaltyInfo()": "b24f2d39",
        "getPlatformFeeInfo()": "d45573f6",
        "getRoleAdmin(bytes32)": "248a9ca3",
        "getRoleMember(bytes32,uint256)": "9010d07c",
        "getRoleMemberCount(bytes32)": "ca15c873",
        "getRoyaltyInfoForToken(uint256)": "4cc157df",
        "grantRole(bytes32,address)": "2f2ff15d",
        "hasRole(bytes32,address)": "91d14854",
        "initialize(address,string,string,string,address[],address,address,uint128,uint128,address)": "e1591634",
        "isApprovedForAll(address,address)": "e985e9c5",
        "isTrustedForwarder(address)": "572b6c05",
        "mintTo(address,string)": "0075a317",
        "mintWithSignature((address,address,uint256,address,string,uint256,address,uint128,uint128,bytes32),bytes)": "2c4510f8",
        "multicall(bytes[])": "ac9650d8",
        "name()": "06fdde03",
        "nextTokenIdToMint()": "3b1475a7",
        "owner()": "8da5cb5b",
        "ownerOf(uint256)": "6352211e",
        "platformFeeBps()": "22dcd13e",
        "platformFeeRecipient()": "eb13554f",
        "primarySaleRecipient()": "079fe40e",
        "renounceRole(bytes32,address)": "36568abe",
        "revokeRole(bytes32,address)": "d547741f",
        "royaltyInfo(uint256,uint256)": "2a55205a",
        "safeTransferFrom(address,address,uint256)": "42842e0e",
        "safeTransferFrom(address,address,uint256,bytes)": "b88d4fde",
        "setApprovalForAll(address,bool)": "a22cb465",
        "setContractURI(string)": "938e3d7b",
        "setDefaultRoyaltyInfo(address,uint256)": "600dd5ea",
        "setOwner(address)": "13af4035",
        "setPlatformFeeInfo(address,uint256)": "1e7ac488",
        "setPrimarySaleRecipient(address)": "6f4f2837",
        "setRoyaltyInfoForToken(uint256,address,uint256)": "9bcf7a15",
        "supportsInterface(bytes4)": "01ffc9a7",
        "symbol()": "95d89b41",
        "tokenByIndex(uint256)": "4f6ccce7",
        "tokenOfOwnerByIndex(address,uint256)": "2f745c59",
        "tokenURI(uint256)": "c87b56dd",
        "totalSupply()": "18160ddd",
        "transferFrom(address,address,uint256)": "23b872dd",
        "verify((address,address,uint256,address,string,uint256,address,uint128,uint128,bytes32),bytes)": "de903774"
    },
    "id": 70
}